{"abi":[{"type":"constructor","inputs":[{"name":"_verifierGateway","type":"address","internalType":"address"},{"name":"_programVKey","type":"bytes32","internalType":"bytes32"}],"stateMutability":"nonpayable"},{"type":"function","name":"PROGRAM_VKEY","inputs":[],"outputs":[{"name":"","type":"bytes32","internalType":"bytes32"}],"stateMutability":"view"},{"type":"function","name":"merkleRoot","inputs":[],"outputs":[{"name":"","type":"bytes32","internalType":"bytes32"}],"stateMutability":"view"},{"type":"function","name":"owner","inputs":[],"outputs":[{"name":"","type":"address","internalType":"address"}],"stateMutability":"view"},{"type":"function","name":"renounceOwnership","inputs":[],"outputs":[],"stateMutability":"nonpayable"},{"type":"function","name":"transferOwnership","inputs":[{"name":"newOwner","type":"address","internalType":"address"}],"outputs":[],"stateMutability":"nonpayable"},{"type":"function","name":"verifier","inputs":[],"outputs":[{"name":"","type":"address","internalType":"contract ISP1VerifierGateway"}],"stateMutability":"view"},{"type":"function","name":"verifyAggregateProofAndUpdateRoot","inputs":[{"name":"_publicValues","type":"bytes","internalType":"bytes"},{"name":"_proofBytes","type":"bytes","internalType":"bytes"}],"outputs":[],"stateMutability":"nonpayable"},{"type":"event","name":"MerkleRootUpdated","inputs":[{"name":"oldRoot","type":"bytes32","indexed":false,"internalType":"bytes32"},{"name":"newRoot","type":"bytes32","indexed":false,"internalType":"bytes32"}],"anonymous":false},{"type":"event","name":"OwnershipTransferred","inputs":[{"name":"previousOwner","type":"address","indexed":true,"internalType":"address"},{"name":"newOwner","type":"address","indexed":true,"internalType":"address"}],"anonymous":false},{"type":"error","name":"OwnableInvalidOwner","inputs":[{"name":"owner","type":"address","internalType":"address"}]},{"type":"error","name":"OwnableUnauthorizedAccount","inputs":[{"name":"account","type":"address","internalType":"address"}]}],"bytecode":{"object":"0x60a060405234801561001057600080fd5b506040516105ba3803806105ba83398101604081905261002f916100d8565b338061005557604051631e4fbdf760e01b81526000600482015260240160405180910390fd5b61005e81610088565b50600180546001600160a01b0319166001600160a01b039390931692909217909155608052610112565b600080546001600160a01b038381166001600160a01b0319831681178455604051919092169283917f8be0079c531659141344cd1fd0a4f28419497f9722a3daafe3b4186f6b6457e09190a35050565b600080604083850312156100eb57600080fd5b82516001600160a01b038116811461010257600080fd5b6020939093015192949293505050565b6080516104876101336000396000818160fc015261017501526104876000f3fe608060405234801561001057600080fd5b506004361061007d5760003560e01c80638da5cb5b1161005b5780638da5cb5b146100d35780639a9689d4146100e4578063f04a832d146100f7578063f2fde38b1461011e57600080fd5b80632b7ac3f3146100825780632eb4a7ab146100b2578063715018a6146100c9575b600080fd5b600154610095906001600160a01b031681565b6040516001600160a01b0390911681526020015b60405180910390f35b6100bb60025481565b6040519081526020016100a9565b6100d1610131565b005b6000546001600160a01b0316610095565b6100d16100f2366004610335565b610145565b6100bb7f000000000000000000000000000000000000000000000000000000000000000081565b6100d161012c3660046103a6565b61022c565b61013961026f565b610143600061029c565b565b61014d61026f565b60015460405163020a49e360e51b81526001600160a01b03909116906341493c60906101a5907f00000000000000000000000000000000000000000000000000000000000000009088908890889088906004016103ff565b60006040518083038186803b1580156101bd57600080fd5b505afa1580156101d1573d6000803e3d6000fd5b505060025491506101e6905084860186610438565b60028190556040805183815260208101929092527ffd69edeceaf1d6832d935be1fba54ca93bf17e71520c6c9ffc08d6e9529f8757910160405180910390a15050505050565b61023461026f565b6001600160a01b03811661026357604051631e4fbdf760e01b8152600060048201526024015b60405180910390fd5b61026c8161029c565b50565b6000546001600160a01b031633146101435760405163118cdaa760e01b815233600482015260240161025a565b600080546001600160a01b038381166001600160a01b0319831681178455604051919092169283917f8be0079c531659141344cd1fd0a4f28419497f9722a3daafe3b4186f6b6457e09190a35050565b60008083601f8401126102fe57600080fd5b50813567ffffffffffffffff81111561031657600080fd5b60208301915083602082850101111561032e57600080fd5b9250929050565b6000806000806040858703121561034b57600080fd5b843567ffffffffffffffff81111561036257600080fd5b61036e878288016102ec565b909550935050602085013567ffffffffffffffff81111561038e57600080fd5b61039a878288016102ec565b95989497509550505050565b6000602082840312156103b857600080fd5b81356001600160a01b03811681146103cf57600080fd5b9392505050565b81835281816020850137506000828201602090810191909152601f909101601f19169091010190565b8581526060602082015260006104196060830186886103d6565b828103604084015261042c8185876103d6565b98975050505050505050565b60006020828403121561044a57600080fd5b503591905056fea2646970667358221220e59db7394a59c96418149630bc4c1f4bad3520d22ca335bbcb84ca3b137da65764736f6c634300081a0033","linkReferences":{}},"methodIdentifiers":{"PROGRAM_VKEY()":"f04a832d","merkleRoot()":"2eb4a7ab","owner()":"8da5cb5b","renounceOwnership()":"715018a6","transferOwnership(address)":"f2fde38b","verifier()":"2b7ac3f3","verifyAggregateProofAndUpdateRoot(bytes,bytes)":"9a9689d4"},"id":30}